:100000000C9446000C9465000C9465000C946500FB
:100010000C9465000C9465000C9465000C946500CC
:100020000C9465000C9465000C9465000C946500BC
:100030000C9465000C9465000C9427010C946500E9
:100040000C9465000C9465000C9465000C9465009C
:100050000C9465000C9465000C9465000C9465008C
:100060000C9465000C9465000C9465000C9465007C
:100070000C9465000C9465000C9465000C9465006C
:100080000C9465000C9465000C94650011241FBE4F
:10009000CFEFD0E1DEBFCDBF11E0A0E0B1E0E2EAFA
:1000A000F6E100E00BBF02C007900D92AA34B10741
:1000B000D9F710E1AAE4B1E001C01D92A131B10766
:1000C000E1F70E943E060C944F0B0C940000DF9366
:1000D000CF93CDB7DEB7AEE4B0E0EEE4F0E08081E0
:1000E00083608C93ECE4F0E080E09EEF918380836A
:1000F000A7E5B0E0E7E5F0E0808184608C93CF91E4
:10010000DF910895DF93CF93CDB7DEB7AFE5B0E0D1
:10011000EFE5F0E080818F778C93CF91DF910895A8
:10012000DF93CF93CDB7DEB7AFE5B0E0EFE5F0E01A
:10013000808180688C93CF91DF910895DF93CF9376
:10014000CDB7DEB70E9482001F920F920FB60F92BA
:1001500000905B000F9211242F923F924F925F927A
:100160006F927F928F929F92AF92BF92CF92DF92C7
:10017000EF92FF920F931F932F933F934F935F93B1
:100180006F937F938F939F93AF93BF93EF93FF935F
:10019000A0910D10B0910E10EDE5F0E080819181FD
:1001A0001B969C938E931A97E0910D10F0910E1070
:1001B0008281938190930E1080930D100AC0E0917C
:1001C0000D10F0910E108281938190930E10809308
:1001D0000D10E0910D10F0910E1086858F3F79F390
:1001E000EDE5F0E0A0910D10B0910E101A968D91F2
:1001F0009C911B9791838083FF91EF91BF91AF9169
:100200009F918F917F916F915F914F913F912F912E
:100210001F910F91FF90EF90DF90CF90BF90AF9024
:100220009F908F907F906F905F904F903F902F9016
:100230000F9000925B000F900FBE0F901F900E94D6
:100240009000CF91DF910895CF91DF9108951F9293
:100250000F920FB60F9200905B000F9211242F9314
:100260003F934F935F936F937F938F939F93AF933E
:10027000BF93EF93FF93DF93CF93CDB7DEB70E9489
:100280008200ECE4F0E080E09EEF91838083A6E5BD
:10029000B0E0E6E5F0E0808184608C930E949E00EF
:1002A0000E945F090E949000CF91DF91FF91EF9132
:1002B000BF91AF919F918F917F916F915F914F917E
:1002C0003F912F910F9000925B000F900FBE0F9007
:1002D0001F901895DF93CF93CDB7DEB70E947205BC
:1002E0000E94B2050E94F4050E94D7050E940106F3
:1002F0000E949506CF91DF910895DF93CF93CDB7FC
:10030000DEB70E9482000E94080790930E1080932F
:100310000D100E9467000E949E000E949000CF91E5
:10032000DF9108950F931F93DF93CF93CDB7DEB77F
:1003300060970FB6F894DEBF0FBECDBF98878F834E
:100340001E821D821C821B821A821982F1C08D813D
:100350009E819C878B874B855C85552334F46B8508
:100360007C85695F7F4F7C876B878B859C859595A6
:1003700087959595879595958795FC01E65BF24F56
:1003800040818D819E8128E030E0B9010E941A0BE6
:100390009C0187E090E0BC01621B730B9B0181E034
:1003A00090E0022E02C0880F991F0A94E2F784237E
:1003B000882309F0B8C01A8219828D819E819C839E
:1003C0008B8348C08B819C819E878D878D859E8580
:1003D000992334F44D855E85495F5F4F5E874D8775
:1003E0008D859E8595958795959587959595879506
:1003F000FC01E65BF24F40818B819C8128E030E07C
:10040000B9010E941A0B9C0187E090E0BC01621BBD
:10041000730B9B0181E090E0022E02C0880F991FB0
:100420000A94E2F78423882359F489819A810196FA
:100430009A8389838B819C8101969C838B830AC0DC
:100440002D813E818B819C81820F931F01969E831B
:100450008D830CC02D813E818F819885280F391F97
:100460008B819C81821793070CF4ACCF29813A8150
:100470008F8198852817390709F05AC08D819E8190
:100480009C838B833AC08B819C81988B8F878F85CF
:100490009889992334F44F855889495F5F4F588B69
:1004A0004F878F859889959587959595879595958B
:1004B00087958C01FC01E65BF24F40818B819C812A
:1004C00028E030E0B9010E941A0B9C0187E090E01F
:1004D000BC01621B730B9B0181E090E002C0880F9E
:1004E000991F2A95E2F7842BF801E65BF24F80838F
:1004F0008B819C8101969C838B832D813E818F8192
:100500009885280F391F8B819C81821793070CF4E3
:10051000BACF2AE431E08D819E81A901480F591F8D
:100520005A87498713C08D819E8101969E838D8352
:1005300020E03CE08F819885281B390B8D819E81BE
:10054000821793070CF403CF1A86198689859A853A
:1005500060960FB6F894DEBF0FBECDBFCF91DF918E
:100560001F910F9108950F931F93DF93CF93CDB7F2
:10057000DEB728970FB6F894DEBF0FBECDBF9C83C1
:100580008B837E836D831A8219828B819C812AE4FE
:1005900031E0821B930B9A8389833AC089819A81C7
:1005A00098878F836F81788577232CF48F81988546
:1005B000079698878F838F819885959587959595D0
:1005C0008795959587958C01FC01E65BF24F4081FC
:1005D00089819A8128E030E0B9010E941A0B9C01C0
:1005E00087E090E0BC01621B730B9B0181E090E00F
:1005F00002C0880F991F2A95E2F780958423F8019D
:10060000E65BF24F808389819A8101969A83898380
:1006100049815A812D813E818AE491E0281B390B62
:100620008B819C81820F931F4817590708F4B6CF1E
:1006300028960FB6F894DEBF0FBECDBFCF91DF91E5
:100640001F910F910895DF93CF9300D000D000D079
:10065000CDB7DEB71C821B821A8219821C821B82D4
:100660003CC08B819C819E838D836D817E817723AD
:100670002CF48D819E8107969E838D838D819E8132
:10068000959587959595879595958795FC01E65B5A
:10069000F24F40818B819C8128E030E0B9010E94BB
:1006A0001A0B9C0187E090E0BC01621B730B9B015D
:1006B00081E090E0022E02C0880F991F0A94E2F7B1
:1006C0008423882329F089819A8101969A838983DA
:1006D0008B819C8101969C838B838B819C817CE0A8
:1006E000803097070CF4BDCF89819A8126960FB68A
:1006F000F894DEBF0FBECDBFCF91DF910895DF9399
:10070000CF9300D0CDB7DEB79A838983E981FA8190
:10071000A081B181E981FA818281938113969C93B2
:100720008E931297E981FA81A281B381E981FA81DE
:100730008081918111969C938E930F900F90CF9111
:10074000DF910895DF93CF9300D000D000D0CDB7D4
:10075000DEB780E190E00E9492019C838B8380E170
:1007600090E00E9492019A8389838B819C810097FB
:10077000A9F189819A81009789F1EB81FC818981B6
:100780009A8193838283EB81FC8189819A81918311
:100790008083E981FA818B819C8193838283E981C3
:1007A000FA818B819C8191838083EB81FC818FEF27
:1007B0008687E981FA818FEF8687EB81FC8180E073
:1007C00091E097838683E981FA8185E091E09783C0
:1007D00086838B819C819E838D8302C01E821D82B5
:1007E0008D819E8126960FB6F894DEBF0FBECDBFD9
:1007F000CF91DF910895DF93CF9300D000D000D048
:10080000CDB7DEB780E190E00E9492019C838B839C
:1008100080E190E00E9492019A8389838B819C8180
:10082000009789F189819A81009769F1EB81FC81B8
:1008300089819A8193838283EB81FC81118210826A
:10084000E981FA8113821282E981FA818B819C818C
:1008500091838083EB81FC818FEF8687E981FA8128
:100860008FEF8687EB81FC8180E091E09783868320
:10087000E981FA8185E091E0978386838B819C8171
:100880009E838D8302C01E821D828D819E8126964D
:100890000FB6F894DEBF0FBECDBFCF91DF910895A4
:1008A000DF93CF9300D00F92CDB7DEB789837B83E0
:1008B0006A838981882F90E0880F991FFC01ED528F
:1008C000F14F0190F081E02D82819381EA81FB81DB
:1008D000938382838981882F90E0880F991FFC0180
:1008E000ED52F14F80819181EA81FB819183808378
:1008F0008981882F90E0880F991FFC01ED52F14FFC
:100900000190F081E02D0280F381E02D8A819B81AE
:10091000918380838981882F90E0880F991FFC0143
:10092000ED52F14F0190F081E02D8A819B819383FC
:1009300082830F900F900F90CF91DF910895DF93F6
:10094000CF9300D0CDB7DEB79A838983E091DD0ED7
:10095000F091DE0E82819381E981FA819383828313
:100960008091DD0E9091DE0EE981FA819183808382
:10097000E091DD0EF091DE0E0280F381E02D8981A1
:100980009A8191838083E091DD0EF091DE0E898162
:100990009A81938382830F900F90CF91DF91089576
:1009A000DF93CF9300D000D0CDB7DEB7E091CC0E6F
:1009B000F091CD0E828193819A83898389819A8176
:1009C000009719F1A091CC0EB091CD0EE091CC0E14
:1009D000F091CD0E0280F381E02D828193811396F8
:1009E0009C938E931297E091CC0EF091CD0E0280E5
:1009F000F381E02D8091CC0E9091CD0E9183808378
:100A000089819A819C838B8302C01C821B828B818B
:100A10009C810F900F900F900F90CF91DF910895D0
:100A2000DF93CF9300D0CDB7DEB79A838983E0916F
:100A3000CC0EF091CD0E82819381E981FA8193836E
:100A400082838091CC0E9091CD0EE981FA819183C1
:100A50008083E091CC0EF091CD0E0280F381E02DE9
:100A600089819A8191838083E091CC0EF091CD0EA3
:100A700089819A81938382830F900F90CF91DF9128
:100A80000895DF93CF9300D0CDB7DEB79A838983E3
:100A9000E091CA0EF091CB0E82819381E981FA81B7
:100AA000938382838091CA0E9091CB0EE981FA8163
:100AB00091838083E091CA0EF091CB0E0280F38186
:100AC000E02D89819A8191838083E091CA0EF09113
:100AD000CB0E89819A81938382830F900F90CF915F
:100AE000DF910895DF93CF9300D000D00F92CDB760
:100AF000DEB71C821B820E94FB039093CD0E809375
:100B0000CC0E8091CC0E9091CD0E009709F11C82F5
:100B10001B8216C080E190E00E9492019A83898333
:100B200089819A81009751F089819A810E941005EC
:100B30008B819C8101969C838B8302C01D8209C09E
:100B40008B819C818830910528F381E08D8301C0E1
:100B50001D828D810F900F900F900F900F90CF916D
:100B6000DF9108950F931F93DF93CF930F92CDB72B
:100B7000DEB7198284E0898311C08981082F10E0D3
:100B80000E94A2039C01C801880F991FFC01ED522D
:100B9000F14F318320838981815089838981882322
:100BA00061F70F90CF91DF911F910F910895DF931F
:100BB000CF930F92CDB7DEB7198284E089830AC044
:100BC0008981882F90E0FC01E253F14F10828981E6
:100BD000815089838981882399F781E08093CE0EA3
:100BE0000F90CF91DF910895DF93CF93CDB7DEB70C
:100BF0000E94FB039093DE0E8093DD0ECF91DF9178
:100C00000895DF93CF93CDB7DEB70E94FB03909397
:100C1000CB0E8093CA0ECF91DF910895DF93CF93CF
:100C200000D0CDB7DEB79A8389830E9482008AE024
:100C300091E00E94690A0E949000F7CFDF93CF9362
:100C400000D0CDB7DEB79A8389830E94820082E10B
:100C500091E00E94690A0E949000F7CFDF93CF9342
:100C600000D0CDB7DEB79A8389830E9482008AE1E3
:100C700091E00E94690A0E949000F7CF0F931F93A2
:100C8000DF93CF930F92CDB7DEB70E94270A0E9461
:100C90006A01E4E3F0E08FEF8083E5E3F0E0808138
:100CA000E5E3F0E08FEF808384E291E02EE036E030
:100CB00046EA5FE0B90121E000E010E00E9487070A
:100CC000809322018AE291E02EE136E042E45FE087
:100CD000B90121E000E010E00E9487078093230122
:100CE00080E391E02EE236E04AE050E1B90121E0F4
:100CF00000E010E00E948707809322010E947D019E
:100D000004C086E391E00E94690A80912201882351
:100D100021F0809123018823A1F780E090E00F90DB
:100D2000CF91DF911F910F910895DF93CF9300D062
:100D300000D0CDB7DEB70E94820080E490E00E9430
:100D400092019C838B830E94D0049A838983E981DA
:100D5000FA8180E491E097838683E981FA8117869E
:100D6000E981FA8181E0868789819A8190930C10CC
:100D700080930B10E981FA818B819C819583848318
:100D8000E981FA811586148680910B1090910C10E0
:100D90009093D40E8093D30E29813A8180E0B901DB
:100DA0000E9450040E9490000F900F900F900F909F
:100DB000CF91DF910895DF93CF9300D00F92CDB7FD
:100DC000DEB79A838983E981FA818785882F90E04D
:100DD000FC01E253F14F8081882311F01B8202C095
:100DE00081E08B838B810F900F900F90CF91DF91DB
:100DF0000895DF93CF9300D0CDB7DEB79A83898370
:100E0000E981FA8187850F900F90CF91DF91089546
:100E1000DF93CF9300D00F92CDB7DEB7198284E075
:100E2000898319C08981882F90E0FC01E253F14F3A
:100E30008081882369F08981882F90E0880F991F2D
:100E4000FC01ED52F14F808191819B838A830CC01C
:100E50008981815089838981882321F78091D30EEC
:100E60009091D40E9B838A838A819B810F900F90EF
:100E70000F90CF91DF910895DF93CF9300D00F9221
:100E8000CDB7DEB7198280910D1090910E100E949F
:100E9000DB06882331F184E0898319C08981882F9A
:100EA00090E0FC01E253F14F8081882369F0898151
:100EB000882F90E0880F991FFC01ED52F14F80813F
:100EC00091819B838A831BC0898181508983898119
:100ED000882321F78091D30E9091D40E9B838A832F
:100EE0000EC080910F109091101090930E1080936F
:100EF0000D1080910D1090910E109B838A838A8132
:100F00009B810F900F900F90CF91DF9108950F93D9
:100F10001F93DF93CF93CDB7DEB72C970FB6F8941E
:100F2000DEBF0FBECDBF9C838B837E836D835887CE
:100F30004F8329871B870A870E9482000E94D00462
:100F40009A83898389819A81009709F458C0E9813D
:100F5000FA818B819C8197838683E981FA818985D7
:100F60008787E981FA8181E08687E981FA818D812D
:100F70009E81918780878A859B85009731F0898142
:100F80009A81EA85FB8591838083E981FA818F814B
:100F9000988595838483E981FA8115861486298151
:100FA0003A818985B9010E9450048985282F30E053
:100FB000F901E253F14F80818F5FF901E253F14F64
:100FC00080838D819E81EF81F88580838F819885D4
:100FD000FC0131978D819E81892F992780838F8194
:100FE0009885849798878F838F819885E981FA8186
:100FF000938782870E94900081E08C8701C01C86C5
:101000008C852C960FB6F894DEBF0FBECDBFCF9166
:10101000DF911F910F9108950F931F93DF93CF934B
:10102000CDB7DEB72E970FB6F894DEBF0FBECDBF9B
:101030009E838D8378876F835A8749872B871D8787
:101040000C870E94820089859A850E9492019C8368
:101050008B830E94D0049A8389838B819C81009723
:1010600009F463C089819A81009709F45EC0E9811F
:10107000FA818D819E8197838683E981FA818B85B0
:101080008787E981FA8181E086878F819885E98168
:10109000FA81918780878C859D85009731F08981C1
:1010A0009A81EC85FD85918380838B819C81E98188
:1010B000FA8195838483E981FA81158614862981D2
:1010C0003A818B85B9010E9450048B85282F30E02E
:1010D000F901E253F14F80818F5FF901E253F14F43
:1010E0008083EB81FC81CE0107968083CF0101973D
:1010F0009C838B83EB81FC81CE010796892F9927F6
:101100008083CF0101979C838B838B819C81839704
:101110009C838B83CE010396E981FA819387828732
:101120000E94900081E08E8701C01E868E852E96DB
:101130000FB6F894DEBF0FBECDBFCF91DF911F91E8
:101140000F910895DF93CF9300D000D0CDB7DEB7D5
:101150009C838B838B819C819A8389830E948200EC
:1011600089819A810E94F906282F30E0F901E25323
:10117000F14F80818150F901E253F14F80838981E1
:101180009A810E94DB06882349F00E943C079093D5
:101190000E1080930D100E949E0029C02B813C816F
:1011A00080910D1090910E1028173907B1F00E9410
:1011B0009E0089819A810E947F0389819A810E9481
:1011C000100520910D1030910E1089819A8182179F
:1011D000930769F40E949E000AC00E949E008981C4
:1011E0009A810E947F0389819A810E9441050E9411
:1011F00090000F900F900F900F90CF91DF91089576
:10120000DF93CF9300D000D0CDB7DEB79C838B8324
:101210008B819C819A8389830E94820089819A8133
:101220000E94F906282F30E0F901E253F14F808146
:101230008150F901E253F14F8083E981FA811686EA
:1012400089819A810E94DB06882349F00E943C072D
:1012500090930E1080930D100E949E0027C02B814A
:101260003C8180910D1090910E1028173907A1F044
:1012700089819A810E947F0389819A810E94410518
:1012800020910D1030910E1089819A818217930759
:1012900069F40E949E000AC00E949E0089819A8182
:1012A0000E947F0389819A810E9441050E949000DB
:1012B0000F900F900F900F90CF91DF910895DF93D3
:1012C000CF9300D00F92CDB7DEB7E091DD0EF09155
:1012D000DE0E828193819A8389830E9482005FC09F
:1012E000E981FA8184859585009781F0E981FA8109
:1012F000848595850197E981FA8195878487E981BD
:10130000FA81828193819A83898349C089819A81F4
:101310000E947F03E981FA8181E0868789819A8131
:101320000E94F90629813A81B9010E9450048981FD
:101330009A810E94F906282F30E0F901E253F14F1B
:1013400080818F5FF901E253F14F808384E08B83CA
:101350008B81882F90E0FC01E253F14F808188233C
:10136000D1F08B81882F90E0880F991FFC01ED52FE
:10137000F14F0190F081E02D8281938190930E10C6
:1013800080930D10E091DD0EF091DE0E828193814D
:101390009A83898304C08B8181508B83D9CFE98163
:1013A000FA8186858F3F09F09BCF0E9490000F90B5
:1013B0000F900F90CF91DF910895DF93CF9300D0DE
:1013C000CDB7DEB79A8389830E94820080910D1089
:1013D00090910E109093101080930F1080910D102B
:1013E00090910E100E94F906282F30E0F901E25387
:1013F000F14F80818150F901E253F14F8083E091F8
:101400000D10F0910E101686E0910D10F0910E1057
:1014100089819A819587848780910D1090910E1013
:101420000E947F0380910D1090910E100E949F04E6
:101430000E943C0790930E1080930D100E949E0016
:101440000E9490000F900F90CF91DF910895DF934D
:10145000CF93CDB7DEB7EAE9F0E01082EBE9F0E038
:101460001082EDE9F0E086E08083E9E9F0E084E3D2
:101470008083E8E9F0E01082EAE9F0E088E1808327
:10148000CF91DF910895DF93CF930F92CDB7DEB761
:101490008983EBE9F0E08081882F90E08072907082
:1014A0000097B9F3ECE9F0E0898180830F90CF9148
:1014B000DF910895DF93CF93CDB7DEB7EBE9F0E08E
:1014C00080818823DCF7ECE9F0E08081CF91DF9127
:1014D0000895DF93CF9300D0CDB7DEB79A83898389
:1014E0000AC0E981FA8180810E94430A89819A8138
:1014F00001969A838983E981FA818081882389F71B
:101500008AE00E94430A8DE00E94430A0F900F90E8
:10151000CF91DF9108950F931F93DF93CF93CDB7B2
:10152000DEB7A9970FB6F894DEBF0FBECDBF6EA38E
:101530007FA388A799A780E2FE013696DF01982F46
:101540001D929A95E9F781E08B831A8219828EA108
:101550009FA19A8389830DC089819A812AE030E016
:10156000B9010E94060BCB019A8389838B818F5F1F
:101570008B8389819A818A30910570F7CE01069616
:101580009D838C8331C08B81882F90E08C0101502A
:1015900010408EA19FA1A8A5B9A52AE030E040E0A7
:1015A00050E0BC01CD010E942D0BDC01CB01282FA6
:1015B000205DCE010696FC01E00FF11F20838EA175
:1015C0009FA1A8A5B9A52AE030E040E050E0BC0109
:1015D000CD010E942D0BDA01C9018EA39FA3A8A7FC
:1015E000B9A78B8181508B838B81882361F6CE01D3
:1015F00006960E94690AA9960FB6F894DEBF0FBE40
:10160000CDBFCF91DF911F910F910895AA1BBB1BF6
:1016100051E107C0AA1FBB1FA617B70710F0A61BF2
:10162000B70B881F991F5A95A9F780959095BC0113
:10163000CD01089597FB092E07260AD077FD04D027
:10164000E5DF06D000201AF4709561957F4F08956C
:10165000F6F7909581959F4F0895A1E21A2EAA1B47
:10166000BB1BFD010DC0AA1FBB1FEE1FFF1FA21752
:10167000B307E407F50720F0A21BB30BE40BF50B4F
:10168000661F771F881F991F1A9469F760957095D8
:10169000809590959B01AC01BD01CF010895F89410
:0216A000FFCF7A
:1016A20048656164005461696C007461736B310D4B
:1016B2000A007461736B320D0A007461736B330D2F
:1016C2000A000A0A7461736B31007461736B320031
:1016D2007461736B3300353536353635350D0A0096
:0A16E20049646C655461736B0000ED
:00000001FF
